:020000040000fa
:08000000e00204000000000012
:020000040000fa
:040008007c01000077
:020000040000fa
:04000c007c01000073
:020000040000fa
:040010007c0100006f
:020000040000fa
:040014007c0100006b
:020000040000fa
:040018007c01000067
:020000040000fa
:04001c007c01000063
:020000040000fa
:040020007c0100005f
:020000040000fa
:040024007c0100005b
:020000040000fa
:040028007c01000057
:020000040000fa
:04002c007c01000053
:020000040000fa
:040030007c0100004f
:020000040000fa
:040034007c0100004b
:020000040000fa
:040038007c01000047
:020000040000fa
:04003c007c01000043
:020000040000fa
:040040007c0100003f
:020000040000fa
:040044007c0100003b
:020000040000fa
:040048007c01000037
:020000040000fa
:04004c007c01000033
:020000040000fa
:040050007c0100002f
:020000040000fa
:040054007c0100002b
:020000040000fa
:040058007c01000027
:020000040000fa
:04005c007c01000023
:020000040000fa
:040060007c0100001f
:020000040000fa
:040064007c0100001b
:020000040000fa
:040068007c01000017
:020000040000fa
:04006c007c01000013
:020000040000fa
:040070007c0100000f
:020000040000fa
:040074007c0100000b
:020000040000fa
:040078007c01000007
:020000040000fa
:04007c007c01000003
:020000040000fa
:040080007c010000ff
:020000040000fa
:040084007c010000fb
:020000040000fa
:04008800ba030000b7
:020000040000fa
:04008c007c010000f3
:020000040000fa
:040090007c010000ef
:020000040000fa
:040094007c010000eb
:020000040000fa
:040098007c010000e7
:020000040000fa
:04009c007c010000e3
:020000040000fa
:0400a0007c010000df
:020000040000fa
:0400a4007c010000db
:020000040000fa
:0400a8007c010000d7
:020000040000fa
:0400ac007c010000d3
:020000040000fa
:0400b0007c010000cf
:020000040000fa
:0400b4007c010000cb
:020000040000fa
:0400b8007c010000c7
:020000040000fa
:0400bc007c010000c3
:020000040000fa
:0400c0007c010000bf
:020000040000fa
:0400c4007c010000bb
:020000040000fa
:0400c8007c010000b7
:020000040000fa
:0400cc007c010000b3
:020000040000fa
:0400d0007c010000af
:020000040000fa
:0400d4007c010000ab
:020000040000fa
:0400d8007c010000a7
:020000040000fa
:040108007c01000076
:020000040000fa
:04010c007c01000072
:020000040000fa
:040110007c0100006e
:020000040000fa
:040114007c0100006a
:020000040000fa
:040118007c01000066
:020000040000fa
:04011c007c01000062
:020000040000fa
:040120007c0100005e
:020000040000fa
:040124007c0100005a
:020000040000fa
:040128007c01000056
:020000040000fa
:04012c007c01000052
:020000040000fa
:040130007c0100004e
:020000040000fa
:040134007c0100004a
:020000040000fa
:040138007c01000046
:020000040000fa
:04013c007c01000042
:020000040000fa
:040140007c0100003e
:020000040000fa
:040144007c0100003a
:020000040000fa
:040148007c01000036
:020000040000fa
:04014c007c01000032
:020000040000fa
:040150007c0100002e
:020000040000fa
:040154007c0100002a
:020000040000fa
:040158007c01000026
:020000040000fa
:04015c007c01000022
:020000040000fa
:040160007c0100001e
:020000040000fa
:040164007c0100001a
:020000040000fa
:040168007c01000016
:020000040000fa
:04016c007c01000012
:020000040000fa
:040170007c0100000e
:020000040000fa
:040174007c0100000a
:020000040000fa
:040178007c01000006
:020000040000fa
:04017c007c01000002
:020000040000fa
:040180007c010000fe
:020000040000fa
:040184007c010000fa
:020000040000fa
:040188007c010000f6
:020000040000fa
:04018c007c010000f2
:020000040000fa
:040190007c010000ee
:020000040000fa
:040194007c010000ea
:020000040000fa
:040198007c010000e6
:020000040000fa
:04019c007c010000e2
:020000040000fa
:0401a0007c010000de
:020000040000fa
:0401a4007c010000da
:020000040000fa
:0401a8007c010000d6
:020000040000fa
:0401ac007c010000d2
:020000040000fa
:0401b0007c010000ce
:020000040000fa
:0401b4007c010000ca
:020000040000fa
:0401b8007c010000c6
:020000040000fa
:0401bc007c010000c2
:020000040000fa
:0401c0007c010000be
:020000040000fa
:0401c4007c010000ba
:020000040000fa
:0401c8007c010000b6
:020000040000fa
:0401cc007c010000b2
:020000040000fa
:0401d0007c010000ae
:020000040000fa
:0401d4007c010000aa
:020000040000fa
:0401d8007c010000a6
:020000040000fa
:100200008a1f78008b1f780000000600910188008b
:10021000800478000000eb001a003700e2844400fc
:1002200032a0b4009905ba00e284440032a0b400c0
:100230009906ba00e284440032a0b4000006eb0044
:10024000476fde00fd07b200636ce10003003a0077
:10025000ebff07000000eb000a003700606ce100d4
:1002600004003a00005deb008b05e900fdff3e0055
:10027000040037006168e100010032000086eb00f5
:100280000b00070019c7ba001905ba000e04e000f8
:1002900003003a000a00e000e0ff3a000000060018
:1002a000fe07b2009e0188008a047800f5ff37003f
:1002b000395dba008b05e9000c003200295dba00f7
:1002c0008b05e900080032000c00e00003003a0052
:1002d000e284440032a0b400f5ff370019ddba0013
:1002e0008b05e900faff3a008904e800e184440044
:1002f00032a0b400000006000040da000000fe005a
:0403000000000500f4
:020000040000fa
:10030400801f7800c602f800000f2000c622b70044
:1003140000000000e042a90000000000e062a80024
:1003240000000000e0c2a80000000000c8e2af0026
:100334009801040000000000e0c2a90000000000d1
:10034400e062a90000000000c602f9004f00780036
:1003540000000600e042a80000000000b80104000c
:1003640000000000e042a90000000000811f7800a6
:10037400e062a90000000000e0c2a8000000000044
:1003840080007800f0f02f00c822b60000000000c2
:10039400000f200001006000c822b7000000000028
:1003a400e0c2a9000000000000000000e0c2a800b4
:1003b40000000000f0f02f00c822b600000000008a
:1003c400f0002000010060004400dd00c822b700f6
:1003d40000000000e0c2a90000000000cf00780087
:1003e40000000600e042a90000000000e062a9004d
:1003f40000000000e0c2a80000000000c8e2b7004e
:1004040000000000e0c2a900000000000000060097
:10041400e042a80000000000f80104000000000011
:10042400801f78007a040200000000007a040200b1
:10043400000000007a040200000000000003200015
:10044400f4010200000000007a0402000000000031
:1004540000032000f4010200000000007a040200fe
:100464000000000000032000f4010200000000006e
:100474007a04020000000000820102000000000073
:1004840080032000b4010200000000008201020089
:100494000000000080002000b40102000000000001
:1004a400820102000000000010002000b4010200dc
:1004b4000000000082010200000000006000200033
:1004c400b4010200000000008201020000000000ec
:1004d400f0002000b4010200000000004f0078008a
:1004e40000000600801f78007a040200000000006b
:1004f4007a040200000000007a04020000000000f8
:1005040030032000b4010200000000007a0402005d
:100514000000000030032000b401020000000000cd
:100524007a0402000000000030032000b40102003d
:10053400000000007a0402000000000020022000f5
:10054400b4010200000000007a0402000000000070
:10055400820102000000000080022000b4010200b9
:100564000000000082010200000000008000200062
:10057400b40102000000000082010200000000003b
:1005840010002000b40102000000000082010200fb
:100594000000000060002000b40102000000000020
:1005a4008201020000000000e0002000b40102000b
:1005b400000000004f007800000006008f8e20002d
:1005c40000f720000001880000000000ae030200d4
:1005d4000000000054030200000000008700a9008e
:1005e4008f00a8000de2a80017e2a8000000000098
:1005f4000f42a8001942a80070042000801088004f
:100604003005200080108800d0042000801088006d
:100614009c040200000000008604020000000000a8
:1006240086040200000000008604020000000000ae
:10063400860402000000000086040200000000009e
:100644000000200090018800a13e2000ba040200ae
:10065400000000000000200090018800e13f20001d
:10066400ba0402000000000000002000900188008d
:1006740081402000ba0402000000000000002000b5
:100684009001880001422000ba040200000000002a
:10069400cb22a80000000000000000004e0304006c
:1006a40000000000c822ef0000000000ca22ef0092
:1006b40000000000c622ef0000000000a8a2ef0026
:1006c40000000000ce22ef0000000000d022ef0066
:1006d40000000000cc22ef0000000000cdc2a80002
:1006e40000000000d422ef0000000000d622ef003a
:1006f40000000000d222ef0000000000d322a80076
:1007040000000000e022ef0000000000e222ef0001
:1007140000000000de22ef0000000000de82a800de
:100724000000000000422000601088000000280043
:100734007010880050002000a010880000022000e3
:10074400b010880000002800c0108800b00020000d
:10075400f0108800000006000000eb00000778009d
:100764000c000900002f78000007eb0000000600d1
:10077400809fbe00e010800000597800a100200096
:100784000180e700cc0304000000000010042000f6
:100794006628ed00d10020000100e700400420009d
:1007a400e10320000100e7006628ed00a10120001c
:1007b4000100e700a0052000801088008700a90040
:0807c4004f00be0000400600da
:020000040000fa
:1007cc00415400000d000000415400004530000071
:1007dc000d000000415400002b4300005049000064
:1007ec004e3d000031310000313100000d000000a1
:1007fc00415400002b4300004d470000463d0000d3
:10080c00310d0000415400002b4300004d47000007
:10081c00533d0000222b000035320000353500001e
:10082c00343300003631000032300000393400001f
:10083c00220d0000484f00004c41000020450000f4
:10084c004c530000492e000020200000004d0000f9
:10085c00534a0000204500004e560000494100005c
:10086c00444f000020440000455300004445000064
:10087c00204400005350000049430000211a00009e
:10088c000d0000004f4b000000000000455200001e
:0c089c00524f0000520000003e0000001f
:020000040000fa
:1008a8007a040200000000007a0402000000000040
:1008b8007a040200000000007a0402000000000030
:1008c8007a040200000000007a0402000000000020
:1008d800000006000900080002000000540402009d
:1008e800000000000000000000000600801f7800e3
:1008f800c0cc20000000e900feff3a004f0078005d
:1009080000000600801f7800811f7800a1002000e9
:100918000000eb000000e900feff3a008100e9005a
:10092800fbff3a00cf0078004f0078000000060077
:10093800d502a900000000006e04020000000000bb
:10094800d522ae00a404040000000000000020002e
:1009580090018800613e2000ba04020000000000f7
:10096800cb02a8000000000000000600809fbe0027
:10097800829fbe002000200066e8b7002280200089
:100988003140ba008720a900d01088008720ae0027
:10099800ca04040000000000d30020000304e100a2
:1009a800f7ff3a006648e200feff3a000000eb005d
:1009b800004978004f01be004f00be00000006004d
:020000040000fa
:1009c800680800008000000000000000800f0000a0
:1009d800800000000000000000080000680000001f
:0809e800000000000000000007
:020000040000fa
:0200000401f009
:04000000e0b9000063
:020000040000fa
:0200000401f009
:04000400ff7f00007a
:020000040000fa
:0200000401f009
:04000800feff0000f7
:020000040000fa
:0200000401f009
:04001400ffff0000ea
:00000001FF
