:020000040000fa
:080000000001040000000000f3
:020000040000fa
:04000800d001000023
:020000040000fa
:04000c00d00100001f
:020000040000fa
:04001000d00100001b
:020000040000fa
:04001400d001000017
:020000040000fa
:04001800d001000013
:020000040000fa
:04001c00d00100000f
:020000040000fa
:04002000d00100000b
:020000040000fa
:04002400d001000007
:020000040000fa
:04002800d001000003
:020000040000fa
:04002c00d0010000ff
:020000040000fa
:04003000d0010000fb
:020000040000fa
:04003400c8010000ff
:020000040000fa
:04003800d0010000f3
:020000040000fa
:04003c00d0010000ef
:020000040000fa
:04004000d0010000eb
:020000040000fa
:04004400d0010000e7
:020000040000fa
:04004800d0010000e3
:020000040000fa
:04004c00d0010000df
:020000040000fa
:04005000d0010000db
:020000040000fa
:04005400d0010000d7
:020000040000fa
:04005800d0010000d3
:020000040000fa
:04005c00d0010000cf
:020000040000fa
:04006000d0010000cb
:020000040000fa
:04006400d0010000c7
:020000040000fa
:04006800d0010000c3
:020000040000fa
:04006c00d0010000bf
:020000040000fa
:04007000d0010000bb
:020000040000fa
:04007400d0010000b7
:020000040000fa
:04007800d0010000b3
:020000040000fa
:04007c00d0010000af
:020000040000fa
:04008000d0010000ab
:020000040000fa
:04008400d0010000a7
:020000040000fa
:04008800d0010000a3
:020000040000fa
:04008c00d00100009f
:020000040000fa
:04009000d00100009b
:020000040000fa
:04009400d001000097
:020000040000fa
:04009800d001000093
:020000040000fa
:04009c00d00100008f
:020000040000fa
:0400a000d00100008b
:020000040000fa
:0400a400d001000087
:020000040000fa
:0400a800d001000083
:020000040000fa
:0400ac00d00100007f
:020000040000fa
:0400b000d00100007b
:020000040000fa
:0400b400d001000077
:020000040000fa
:0400b800d001000073
:020000040000fa
:0400bc00d00100006f
:020000040000fa
:0400c000d00100006b
:020000040000fa
:0400c400d001000067
:020000040000fa
:0400c800d001000063
:020000040000fa
:0400cc00d00100005f
:020000040000fa
:0400d000d00100005b
:020000040000fa
:0400d400d001000057
:020000040000fa
:0400d800d001000053
:020000040000fa
:04010800d001000022
:020000040000fa
:04010c00d00100001e
:020000040000fa
:04011000d00100001a
:020000040000fa
:04011400d001000016
:020000040000fa
:04011800d001000012
:020000040000fa
:04011c00d00100000e
:020000040000fa
:04012000d00100000a
:020000040000fa
:04012400d001000006
:020000040000fa
:04012800d001000002
:020000040000fa
:04012c00d0010000fe
:020000040000fa
:04013000d0010000fa
:020000040000fa
:04013400d0010000f6
:020000040000fa
:04013800d0010000f2
:020000040000fa
:04013c00d0010000ee
:020000040000fa
:04014000d0010000ea
:020000040000fa
:04014400d0010000e6
:020000040000fa
:04014800d0010000e2
:020000040000fa
:04014c00d0010000de
:020000040000fa
:04015000d0010000da
:020000040000fa
:04015400d0010000d6
:020000040000fa
:04015800d0010000d2
:020000040000fa
:04015c00d0010000ce
:020000040000fa
:04016000d0010000ca
:020000040000fa
:04016400d0010000c6
:020000040000fa
:04016800d0010000c2
:020000040000fa
:04016c00d0010000be
:020000040000fa
:04017000d0010000ba
:020000040000fa
:04017400d0010000b6
:020000040000fa
:04017800d0010000b2
:020000040000fa
:04017c00d0010000ae
:020000040000fa
:04018000d0010000aa
:020000040000fa
:04018400d0010000a6
:020000040000fa
:04018800d0010000a2
:020000040000fa
:04018c00d00100009e
:020000040000fa
:04019000d00100009a
:020000040000fa
:04019400d001000096
:020000040000fa
:04019800d001000092
:020000040000fa
:04019c00d00100008e
:020000040000fa
:0401a000d00100008a
:020000040000fa
:0401a400d001000086
:020000040000fa
:0401a800d001000082
:020000040000fa
:0401ac00d00100007e
:020000040000fa
:0401b000d00100007a
:020000040000fa
:0401b400d001000076
:020000040000fa
:0401b800d001000072
:020000040000fa
:0401bc00d00100006e
:020000040000fa
:0401c000d00100006a
:020000040000fa
:0401c400d001000066
:020000040000fa
:0401c800d001000062
:020000040000fa
:0401cc00d00100005e
:020000040000fa
:0401d000d00100005a
:020000040000fa
:0401d400d001000056
:020000040000fa
:0401d800d001000052
:020000040000fa
:100200006f812000cefd20000e018800000000005c
:10021000000020000000e000020032000001200089
:1002200020028800140007005f0007000000e000c3
:1002300003003a00003020000100200002003700d7
:100240000000200001002000810f7000010032003a
:1002500014000700000020000000e000020032004f
:100260000000020000000000d601020000000000b3
:100270000040da000000fe004440a9000000200019
:100280000000e0000300320000002000a001880010
:100290004440a800000006008a1f78008b1f7800e9
:1002a0000000060091018800800478000000eb0047
:1002b0001a003700e284440032a0b4009905ba0065
:1002c000e284440032a0b4009906ba00e2844400fb
:1002d00032a0b4000006eb00476fde00fd07b2005d
:1002e000636ce10003003a00ebff07000000eb0045
:1002f0000a003700606ce10004003a00005deb008a
:100300008b05e900fdff3e00040037006168e10055
:10031000010032000086eb000b00070019c7ba008d
:100320001905ba000e04e00003003a000a00e000dc
:10033000e0ff3a0000000600fe07b2009e018800c0
:100340008a047800f5ff3700395dba008b05e900b3
:100350000c003200295dba008b05e900080032006c
:100360000c00e00003003a00e284440032a0b40034
:10037000f5ff370019ddba008b05e900faff3a00f6
:100380008904e800e184440032a0b40000000600c3
:100390000000fa008460a9000080fa000040060016
:0c03a0000040da000000fe000000050034
:020000040000fa
:1003ac000200fa00410007005c000700380007005b
:1003bc0007e2a80003000700004f780000000000cf
:1003cc00feff37000400fa005d00070000c9b3000f
:1003dc0061000700411080000000280000806000d0
:1003ec000000e0000200320010c0b300260037000d
:1003fc000040eb005800070041108000000028006e
:10040c00008060000000e0000200320010c0b30069
:10041c001d0037007100070010c9b3004e00070023
:10042c004110800000002800008060000000e00007
:10043c000200320010c0b300130037004c0007005c
:10044c00000f7800510007004900070010079800c2
:10045c00550007005b0007009e00780081108800a3
:10046c009e009000811088008540a90000000000cb
:10047c002104800000402000008060000000e000ab
:10048c00fbff32000040eb000080fa000000060089
:10049c000000fa008460a9008c60a8000de2a8009e
:1004ac000f42a8000080fa00000006000000fa00cd
:1004bc00d422ef0000000000d622ef000000000064
:1004cc00d222ef0000000000d302a80000000000c0
:1004dc00e022ef0000000000e222ef00000000002c
:1004ec00de22ef0000000000de42a8000000000049
:1004fc00200020002010880000000000ce22ef0019
:10050c0000000000cda2a90000000000cdc2a80090
:10051c00000000000080fa00000006000000fa0055
:10052c000042200060108800000028007010880035
:10053c0050002000a01088000080fa000000060087
:10054c0085c0a9000602a80085c0ae00aa0204005e
:10055c00000000000000060085c0a90002e2b70000
:10056c0085c0ae00b60204000000000000000600ca
:10057c0085c0a9000662a80085c0ae00c2020400b6
:10058c0000000000001080000000060085c0a900db
:10059c0006a2a9000682a80085c0ae00d202040003
:1005ac00000000000000060085c0a90006a2a800fb
:1005bc000682a80085c0ae00e00204000000000026
:1005cc000000060085c0a9000642a80085c0ae0048
:1005dc00ec020400000000000000060085c0a90029
:1005ec000622a80085c0ae00f8020400000000003e
:0405fc0000000600f5
:020000040000fa
:10060000000800001400000000000000ec0f0000d3
:1006100014000000000000001408000002000000a8
:080620000000000000000000d2
:020000040000fa
:0406280000000000ce
:020000040000fa
:0200000401f009
:04000000e0b9000063
:020000040000fa
:0200000401f009
:04000400ff7f00007a
:020000040000fa
:0200000401f009
:04000800feff0000f7
:020000040000fa
:0200000401f009
:04001400ffff0000ea
:00000001FF
