:020000040000fa
:080000000001040000000000f3
:020000040000fa
:04000800c80100002b
:020000040000fa
:04000c00c801000027
:020000040000fa
:04001000c801000023
:020000040000fa
:04001400c80100001f
:020000040000fa
:04001800c80100001b
:020000040000fa
:04001c00c801000017
:020000040000fa
:04002000c801000013
:020000040000fa
:04002400c80100000f
:020000040000fa
:04002800c80100000b
:020000040000fa
:04002c00c801000007
:020000040000fa
:04003000c801000003
:020000040000fa
:04003400c8010000ff
:020000040000fa
:04003800c8010000fb
:020000040000fa
:04003c00c8010000f7
:020000040000fa
:04004000c8010000f3
:020000040000fa
:04004400a60300000f
:020000040000fa
:04004800c8010000eb
:020000040000fa
:04004c00920300001b
:020000040000fa
:04005000c8010000e3
:020000040000fa
:04005400ac030000f9
:020000040000fa
:04005800c8010000db
:020000040000fa
:04005c00c8010000d7
:020000040000fa
:04006000c8010000d3
:020000040000fa
:04006400c8010000cf
:020000040000fa
:04006800c8010000cb
:020000040000fa
:04006c00c8010000c7
:020000040000fa
:04007000c8010000c3
:020000040000fa
:04007400c8010000bf
:020000040000fa
:04007800c8010000bb
:020000040000fa
:04007c00c8010000b7
:020000040000fa
:04008000c8010000b3
:020000040000fa
:04008400c8010000af
:020000040000fa
:04008800c8010000ab
:020000040000fa
:04008c00c8010000a7
:020000040000fa
:04009000c8010000a3
:020000040000fa
:04009400c80100009f
:020000040000fa
:04009800c80100009b
:020000040000fa
:04009c00c801000097
:020000040000fa
:0400a000c801000093
:020000040000fa
:0400a400c80100008f
:020000040000fa
:0400a800c80100008b
:020000040000fa
:0400ac00c801000087
:020000040000fa
:0400b000c801000083
:020000040000fa
:0400b400c80100007f
:020000040000fa
:0400b800c80100007b
:020000040000fa
:0400bc00c801000077
:020000040000fa
:0400c000c801000073
:020000040000fa
:0400c400c80100006f
:020000040000fa
:0400c800c80100006b
:020000040000fa
:0400cc00c801000067
:020000040000fa
:0400d000c801000063
:020000040000fa
:0400d400c80100005f
:020000040000fa
:0400d800c80100005b
:020000040000fa
:04010800c80100002a
:020000040000fa
:04010c00c801000026
:020000040000fa
:04011000c801000022
:020000040000fa
:04011400c80100001e
:020000040000fa
:04011800c80100001a
:020000040000fa
:04011c00c801000016
:020000040000fa
:04012000c801000012
:020000040000fa
:04012400c80100000e
:020000040000fa
:04012800c80100000a
:020000040000fa
:04012c00c801000006
:020000040000fa
:04013000c801000002
:020000040000fa
:04013400c8010000fe
:020000040000fa
:04013800c8010000fa
:020000040000fa
:04013c00c8010000f6
:020000040000fa
:04014000c8010000f2
:020000040000fa
:04014400c8010000ee
:020000040000fa
:04014800c8010000ea
:020000040000fa
:04014c00c8010000e6
:020000040000fa
:04015000c8010000e2
:020000040000fa
:04015400c8010000de
:020000040000fa
:04015800c8010000da
:020000040000fa
:04015c00c8010000d6
:020000040000fa
:04016000c8010000d2
:020000040000fa
:04016400c8010000ce
:020000040000fa
:04016800c8010000ca
:020000040000fa
:04016c00c8010000c6
:020000040000fa
:04017000c8010000c2
:020000040000fa
:04017400c8010000be
:020000040000fa
:04017800c8010000ba
:020000040000fa
:04017c00c8010000b6
:020000040000fa
:04018000c8010000b2
:020000040000fa
:04018400c8010000ae
:020000040000fa
:04018800c8010000aa
:020000040000fa
:04018c00c8010000a6
:020000040000fa
:04019000c8010000a2
:020000040000fa
:04019400c80100009e
:020000040000fa
:04019800c80100009a
:020000040000fa
:04019c00c801000096
:020000040000fa
:0401a000c801000092
:020000040000fa
:0401a400c80100008e
:020000040000fa
:0401a800c80100008a
:020000040000fa
:0401ac00c801000086
:020000040000fa
:0401b000c801000082
:020000040000fa
:0401b400c80100007e
:020000040000fa
:0401b800c80100007a
:020000040000fa
:0401bc00c801000076
:020000040000fa
:0401c000c801000072
:020000040000fa
:0401c400c80100006e
:020000040000fa
:0401c800c80100006a
:020000040000fa
:0401cc00c801000066
:020000040000fa
:0401d000c801000062
:020000040000fa
:0401d400c80100005e
:020000040000fa
:0401d800c80100005a
:020000040000fa
:100200008f8920000ef720000e01880000000000fa
:10021000000020000000e000020032000001200089
:1002200020028800140007005b0007000000e000c7
:1002300003003a00003d20000100200002003700ca
:100240000000200001002000810f7000010032003a
:1002500014000700000020000000e000020032004f
:100260000000020000000000a402020000000000e4
:100270000040da000000fe004440a9000000200019
:100280000000e0000300320000002000a001880010
:100290004440a800000006008a1f78008b1f7800e9
:1002a0000000060091018800800478000000eb0047
:1002b0001a003700e284440032a0b4009905ba0065
:1002c000e284440032a0b4009906ba00e2844400fb
:1002d00032a0b4000006eb00476fde00fd07b2005d
:1002e000636ce10003003a00ebff07000000eb0045
:1002f0000a003700606ce10004003a00005deb008a
:100300008b05e900fdff3e00040037006168e10055
:10031000010032000086eb000b00070019c7ba008d
:100320001905ba000e04e00003003a000a00e000dc
:10033000e0ff3a0000000600fe07b2009e018800c0
:100340008a047800f5ff3700395dba008b05e900b3
:100350000c003200295dba008b05e900080032006c
:100360000c00e00003003a00e284440032a0b40034
:10037000f5ff370019ddba008b05e900faff3a00f6
:100380008904e800e184440032a0b40000000600c3
:0c0390000040da000000fe000000050044
:020000040000fa
:10039c00d402a90000000000d422a9000000000033
:1003ac00d442a800000000004016880000000000a5
:1003bc00d442a9000000000000000600d402a800ee
:1003cc0000000000d422a90000000000d442a800c4
:1003dc00000000004016880000000000d442a90074
:1003ec000000000000000600c6a2ef0000000000a4
:1003fc00d422a80000000000d402a90000000000d4
:10040c00d442a800c8e2af000802040000000000bb
:10041c00d442a90000000000d422a9000000000072
:10042c00c622ef000000000000000600801f7800cc
:10043c0064030200000000006002200000000000c5
:10044c00ce01020000000000640302000000000066
:10045c006002200000000000ce010200000000003d
:10046c006403020000000000600220000000000095
:10047c00ce01020000000000fa01020000000000a2
:10048c008003200000000000ce01020000000000ec
:10049c00fa01020000000000c00020000000000073
:1004ac00ce01020000000000fa0102000000000072
:1004bc001000200000000000ce010200000000002f
:1004cc00fa010200000000006000200000000000a3
:1004dc00ce01020000000000fa0102000000000042
:1004ec00c000200000000000ce010200000000004f
:1004fc00fa010200000000004f0078000000060026
:10050c00811f7800800078000000000031407800e6
:10051c00000000000004e00006003200fa010200b6
:10052c0000000000e4010200000000008c02040046
:10053c0000000000cf007800000006000000fa0068
:10054c002a00070000e12000700888000a21ef0053
:10055c001221ef000f000700170007000200070030
:10056c006b000700feff37000000fa0084e0a900d2
:10057c008560a9008ce0a8008d60a80013e1a8009c
:10058c000de2a8000f42a800a1e2a8000080fa002a
:10059c00000006000000fa000042200060108800f5
:1005ac00000028007010880050002000a010880067
:1005bc000080fa00000006000000fa004004200051
:1005cc0000158800a222ef0020f0200020158800e2
:1005dc00200020003015880080ff2f004015880077
:1005ec00aa22ef000080fa00000006000000fa00ca
:1005fc00c222ef0000000000c022ef00000000004b
:10060c00c422ef00c822ef0000000000ca22ef0055
:10061c0000000000c602a80000000000c622a800ce
:10062c0000000000c642a80000000000d422ef0029
:10063c0000000000d622ef0000000000d202a9004a
:10064c0000000000ce22ef0000000000cda2a900a7
:10065c0000000000cdc2a800000000000080fa00dd
:10066c0000000600801f7800811f7800a100200088
:10067c000000eb000000e900feff3a008100e900f9
:10068c00fbff3a00cf0078004f0078000000060016
:10069c00801f7800811f7800410620000000eb00cd
:1006ac000000e900feff3a008100e900fbff3a0080
:1006bc00cf0078004f00780000000600801f780003
:1006cc00811f78000000eb00c05122000000e900ff
:1006dc00feff3a00cf0078004f00780000000600c3
:1006ec00801f7800811f78000000eb0021002000a3
:1006fc0000ac2d000000e900feff3a008100e9008b
:10070c00fbff3a00cf0078004f0078000000060095
:10071c000140fe0000000600801f78000000eb0086
:10072c0090108000104488000000eb0010002000a6
:10073c00204488008520a9004f0078000040060066
:10074c00d602aa0084e0a90000400600801f7800b1
:10075c00811f7800821f7800831f78000000eb0057
:10076c0000148000f3032000830060004601de00cb
:10077c000270a00081108800821088008560a9009a
:10078c00cf0178004f017800cf0078004f0078003f
:04079c000040060013
:020000040000fa
:1007a000000800008000000000000000800f000032
:1007b0008000000000000000800800001800000019
:0807c000000000000000000031
:020000040000fa
:1007c800801f7800004220000ca2b700000028001b
:1007d8000ea2b700b000200014a2b7004f007800a6
:0407e8000000060007
:020000040000fa
:0407ec000000000009
:020000040000fa
:0200000401f009
:04000000e0b9000063
:020000040000fa
:0200000401f009
:04000400ff7f00007a
:020000040000fa
:0200000401f009
:04000800feff0000f7
:020000040000fa
:0200000401f009
:04001400ffff0000ea
:00000001FF
