:020000040000fa
:08000000820104000000000071
:020000040000fa
:040008007c01000077
:020000040000fa
:04000c007c01000073
:020000040000fa
:040010007c0100006f
:020000040000fa
:040014007c0100006b
:020000040000fa
:040018007c01000067
:020000040000fa
:04001c007c01000063
:020000040000fa
:040020007c0100005f
:020000040000fa
:040024007c0100005b
:020000040000fa
:040028007c01000057
:020000040000fa
:04002c007c01000053
:020000040000fa
:040030007c0100004f
:020000040000fa
:040034007c0100004b
:020000040000fa
:040038007c01000047
:020000040000fa
:04003c007c01000043
:020000040000fa
:040040007c0100003f
:020000040000fa
:040044007c0100003b
:020000040000fa
:040048007c01000037
:020000040000fa
:04004c007c01000033
:020000040000fa
:040050007c0100002f
:020000040000fa
:040054007c0100002b
:020000040000fa
:040058007c01000027
:020000040000fa
:04005c007c01000023
:020000040000fa
:040060007c0100001f
:020000040000fa
:040064007c0100001b
:020000040000fa
:040068007c01000017
:020000040000fa
:04006c007c01000013
:020000040000fa
:040070007c0100000f
:020000040000fa
:040074007c0100000b
:020000040000fa
:040078007c01000007
:020000040000fa
:04007c007c01000003
:020000040000fa
:040080007c010000ff
:020000040000fa
:040084007c010000fb
:020000040000fa
:040088005c02000016
:020000040000fa
:04008c007c010000f3
:020000040000fa
:040090007c010000ef
:020000040000fa
:040094007c010000eb
:020000040000fa
:040098007c010000e7
:020000040000fa
:04009c007c010000e3
:020000040000fa
:0400a0007c010000df
:020000040000fa
:0400a4007c010000db
:020000040000fa
:0400a8007c010000d7
:020000040000fa
:0400ac007c010000d3
:020000040000fa
:0400b0007c010000cf
:020000040000fa
:0400b4007c010000cb
:020000040000fa
:0400b8007c010000c7
:020000040000fa
:0400bc007c010000c3
:020000040000fa
:0400c0007c010000bf
:020000040000fa
:0400c4007c010000bb
:020000040000fa
:0400c8007c010000b7
:020000040000fa
:0400cc007c010000b3
:020000040000fa
:0400d0007c010000af
:020000040000fa
:0400d4007c010000ab
:020000040000fa
:0400d8007c010000a7
:020000040000fa
:040108007c01000076
:020000040000fa
:04010c007c01000072
:020000040000fa
:040110007c0100006e
:020000040000fa
:040114007c0100006a
:020000040000fa
:040118007c01000066
:020000040000fa
:04011c007c01000062
:020000040000fa
:040120007c0100005e
:020000040000fa
:040124007c0100005a
:020000040000fa
:040128007c01000056
:020000040000fa
:04012c007c01000052
:020000040000fa
:040130007c0100004e
:020000040000fa
:040134007c0100004a
:020000040000fa
:040138007c01000046
:020000040000fa
:04013c007c01000042
:020000040000fa
:040140007c0100003e
:020000040000fa
:040144007c0100003a
:020000040000fa
:040148007c01000036
:020000040000fa
:04014c007c01000032
:020000040000fa
:040150007c0100002e
:020000040000fa
:040154007c0100002a
:020000040000fa
:040158007c01000026
:020000040000fa
:04015c007c01000022
:020000040000fa
:040160007c0100001e
:020000040000fa
:040164007c0100001a
:020000040000fa
:040168007c01000016
:020000040000fa
:04016c007c01000012
:020000040000fa
:040170007c0100000e
:020000040000fa
:040174007c0100000a
:020000040000fa
:040178007c01000006
:020000040000fa
:04017c007c01000002
:020000040000fa
:040180007c010000fe
:020000040000fa
:040184007c010000fa
:020000040000fa
:040188007c010000f6
:020000040000fa
:04018c007c010000f2
:020000040000fa
:040190007c010000ee
:020000040000fa
:040194007c010000ea
:020000040000fa
:040198007c010000e6
:020000040000fa
:04019c007c010000e2
:020000040000fa
:0401a0007c010000de
:020000040000fa
:0401a4007c010000da
:020000040000fa
:0401a8007c010000d6
:020000040000fa
:0401ac007c010000d2
:020000040000fa
:0401b0007c010000ce
:020000040000fa
:0401b4007c010000ca
:020000040000fa
:0401b8007c010000c6
:020000040000fa
:0401bc007c010000c2
:020000040000fa
:0401c0007c010000be
:020000040000fa
:0401c4007c010000ba
:020000040000fa
:0401c8007c010000b6
:020000040000fa
:0401cc007c010000b2
:020000040000fa
:0401d0007c010000ae
:020000040000fa
:0401d4007c010000aa
:020000040000fa
:0401d8007c010000a6
:020000040000fa
:100200008a1f78008b1f780000000600910188008b
:10021000800478000000eb001a003700e2844400fc
:1002200032a0b4009905ba00e284440032a0b400c0
:100230009906ba00e284440032a0b4000006eb0044
:10024000476fde00fd07b200636ce10003003a0077
:10025000ebff07000000eb000a003700606ce100d4
:1002600004003a00005deb008b05e900fdff3e0055
:10027000040037006168e100010032000086eb00f5
:100280000b00070019c7ba001905ba000e04e000f8
:1002900003003a000a00e000e0ff3a000000060018
:1002a000fe07b2009e0188008a047800f5ff37003f
:1002b000395dba008b05e9000c003200295dba00f7
:1002c0008b05e900080032000c00e00003003a0052
:1002d000e284440032a0b400f5ff370019ddba0013
:1002e0008b05e900faff3a008904e800e184440044
:1002f00032a0b400000006000040da000000fe005a
:0403000000000500f4
:020000040000fa
:100304006f8f200000f7200000018800000000002b
:100314005002020000000000f6010200000000008c
:100324008700a9008f00a8000de2a80017e2a8002a
:10033400000000000f42a8001942a8007004200029
:10034400801088003005200080108800d004200030
:10035400801088008802020000000000c40302002c
:1003640000000000c403020000000000c4030200f7
:1003740000000000c403020000000000c4030200e7
:10038400000000000000200090018800e1332000fc
:10039400a602020000000000000020009001880076
:1003a40021352000a6020200000000000000200009
:1003b40090018800c1352000a60202000000000060
:1003c400000020009001880041372000a6020200ae
:1003d40000000000cb22a800000000000000000084
:1003e400f001040000000000c822ef00000000003b
:1003f400ca22ef0000000000c622ef000000000047
:10040400a8a2ef0000000000ce22ef0000000000d0
:10041400d022ef0000000000cc22ef00000000001a
:10042400cdc2a80000000000d422ef0000000000ac
:10043400d622ef0000000000d222ef0000000000ee
:10044400d322a80000000000e022ef00000000001a
:10045400e222ef0000000000de22ef0000000000b6
:10046400de82a80000000000004220006010880026
:10047400000028007010880050002000a0108800a0
:1004840000022000b010880000002800c01088007e
:10049400b0002000f0108800000006000000eb000f
:1004a400000778000c000900002f78000007eb001b
:1004b40000000600809fbe00e01080000059780014
:1004c400a10020000180e7006e020400000000008b
:1004d400100420006628ed00d10020000100e70090
:1004e40040042000e10320000100e7006628ed003d
:1004f400a10120000100e700a00520008010880071
:100504008700a9004f00be0000400600d502a900e4
:1005140000000000ac03020000000000d522ae0081
:1005240090020400000000000000200090018800f8
:10053400a1332000a602020000000000cb02a800a4
:100544000000000000000600809fbe00829fbe00e5
:100554002000200066e8b700228020003140ba0065
:100564008720a900800278006e04e1001a003a0096
:10057400500220000a0302000000000044407800fa
:10058400d010880044407800d0108800e002200099
:10059400d0108800300c20001e0302000000000070
:1005a40044407800d01088003203020000000000ac
:1005b40044407800d010880032030200000000009c
:1005c40044407800d010880032030200000000008c
:1005d4006e2ce10001003200d01088008720ae00ac
:1005e400f002040000000000d30020000304e10036
:1005f400daff3a006648e200feff3a000000eb0032
:10060400004978004f01be004f00be000000060004
:10061400848e2000a20020001300fc0011000900b9
:100624000200d8000103b000015a78000000e00085
:10063400f8ff3a0000000600a48e2000a20020006b
:100644001300fc00110009000200d8000103b000ef
:10065400015a78000000e000f8ff3a0000000600ac
:100664008720ae00320304000000000000000600f2
:020000040000fa
:10067400415400000d0000004154000045300000ca
:100684000d000000415400002b43000050490000bd
:100694004e3d000031310000313100000d000000fa
:1006a400415400002b4300004d470000463d00002c
:1006b400310d0000415400002b4300004d47000061
:1006c400533d0000222b0000353200003535000078
:1006d4003433000036310000323000003934000079
:1006e400220d0000544500004d500000455200000a
:1006f4004154000055520000413a0000002000001f
:100704000e1a00000d0000004f4b00000000000016
:1007140045520000524f0000520000003e0000000d
:020000040000fa
:10072400b803020000000000b8030200000000004b
:10073400b803020000000000b8030200000000003b
:10074400b803020000000000b8030200000000002b
:1007540000000600090008000200000092030200e5
:10076400000000000000000000000600801f780068
:10077400c0cc20000000e900feff3a004f007800e2
:1007840000000600801f7800811f7800a10020006f
:100794000000eb000000e900feff3a008100e900e0
:1007a400fbff3a00cf0078004f00780000000600fd
:020000040000fa
:1007b400680800008a00000000000000800f0000ac
:1007c4008000000000000000000800006800000035
:1007d40000000000f2080000040000000200000015
:0c07e400000080003b000000000000004e
:020000040000fa
:0200000401f009
:04000000e0b9000063
:020000040000fa
:0200000401f009
:04000400ff7f00007a
:020000040000fa
:0200000401f009
:04000800feff0000f7
:020000040000fa
:0200000401f009
:04001400ffff0000ea
:00000001FF
